{
  "contractName": "Quotri",
  "abi": [
    {
      "inputs": [],
      "payable": false,
      "stateMutability": "nonpayable",
      "type": "constructor"
    },
    {
      "anonymous": false,
      "inputs": [
        {
          "indexed": false,
          "internalType": "uint256",
          "name": "id",
          "type": "uint256"
        },
        {
          "indexed": false,
          "internalType": "string",
          "name": "content",
          "type": "string"
        },
        {
          "indexed": false,
          "internalType": "bool",
          "name": "published",
          "type": "bool"
        }
      ],
      "name": "QuoteCreated",
      "type": "event"
    },
    {
      "anonymous": false,
      "inputs": [
        {
          "indexed": false,
          "internalType": "uint256",
          "name": "id",
          "type": "uint256"
        },
        {
          "indexed": false,
          "internalType": "bool",
          "name": "published",
          "type": "bool"
        }
      ],
      "name": "QuotePublished",
      "type": "event"
    },
    {
      "constant": true,
      "inputs": [],
      "name": "count",
      "outputs": [
        {
          "internalType": "uint256",
          "name": "",
          "type": "uint256"
        }
      ],
      "payable": false,
      "stateMutability": "view",
      "type": "function"
    },
    {
      "constant": true,
      "inputs": [
        {
          "internalType": "uint256",
          "name": "",
          "type": "uint256"
        }
      ],
      "name": "quotes",
      "outputs": [
        {
          "internalType": "uint256",
          "name": "id",
          "type": "uint256"
        },
        {
          "internalType": "string",
          "name": "content",
          "type": "string"
        },
        {
          "internalType": "bool",
          "name": "published",
          "type": "bool"
        }
      ],
      "payable": false,
      "stateMutability": "view",
      "type": "function"
    },
    {
      "constant": false,
      "inputs": [
        {
          "internalType": "string",
          "name": "_content",
          "type": "string"
        }
      ],
      "name": "createQuote",
      "outputs": [],
      "payable": false,
      "stateMutability": "nonpayable",
      "type": "function"
    },
    {
      "constant": false,
      "inputs": [
        {
          "internalType": "uint256",
          "name": "_id",
          "type": "uint256"
        }
      ],
      "name": "publishQuote",
      "outputs": [],
      "payable": false,
      "stateMutability": "nonpayable",
      "type": "function"
    }
  ],
  "bytecode": "0x60806040526000805534801561001457600080fd5b5061003c60405180608001604052806041815260200161090f6041913961004160201b60201c565b61022b565b6000808154809291906001019190505550604051806060016040528060005481526020018281526020016000151581525060016000805481526020019081526020016000206000820151816000015560208201518160010190805190602001906100ac929190610186565b5060408201518160020160006101000a81548160ff0219169083151502179055509050507f0764db6e27484fdb6e638ffaad97f1c9a3dac4ab56e4b8da15687ee171413834600054826000604051808481526020018060200183151515158152602001828103825284818151815260200191508051906020019080838360005b8381101561014757808201518184015260208101905061012c565b50505050905090810190601f1680156101745780820380516001836020036101000a031916815260200191505b5094505050505060405180910390a150565b828054600181600116156101000203166002900490600052602060002090601f016020900481019282601f106101c757805160ff19168380011785556101f5565b828001600101855582156101f5579182015b828111156101f45782518255916020019190600101906101d9565b5b5090506102029190610206565b5090565b61022891905b8082111561022457600081600090555060010161020c565b5090565b90565b6106d58061023a6000396000f3fe608060405234801561001057600080fd5b506004361061004c5760003560e01c806306661abd14610051578063a61cf0d41461006f578063d72de51214610128578063db485c1b146101e3575b600080fd5b610059610211565b6040518082815260200191505060405180910390f35b61009b6004803603602081101561008557600080fd5b8101908080359060200190929190505050610217565b604051808481526020018060200183151515158152602001828103825284818151815260200191508051906020019080838360005b838110156100eb5780820151818401526020810190506100d0565b50505050905090810190601f1680156101185780820380516001836020036101000a031916815260200191505b5094505050505060405180910390f35b6101e16004803603602081101561013e57600080fd5b810190808035906020019064010000000081111561015b57600080fd5b82018360208201111561016d57600080fd5b8035906020019184600183028401116401000000008311171561018f57600080fd5b91908080601f016020809104026020016040519081016040528093929190818152602001838380828437600081840152601f19601f8201169050808301925050505050505091929192905050506102e6565b005b61020f600480360360208110156101f957600080fd5b810190808035906020019092919050505061042b565b005b60005481565b6001602052806000526040600020600091509050806000015490806001018054600181600116156101000203166002900480601f0160208091040260200160405190810160405280929190818152602001828054600181600116156101000203166002900480156102c95780601f1061029e576101008083540402835291602001916102c9565b820191906000526020600020905b8154815290600101906020018083116102ac57829003601f168201915b5050505050908060020160009054906101000a900460ff16905083565b6000808154809291906001019190505550604051806060016040528060005481526020018281526020016000151581525060016000805481526020019081526020016000206000820151816000015560208201518160010190805190602001906103519291906105d8565b5060408201518160020160006101000a81548160ff0219169083151502179055509050507f0764db6e27484fdb6e638ffaad97f1c9a3dac4ab56e4b8da15687ee171413834600054826000604051808481526020018060200183151515158152602001828103825284818151815260200191508051906020019080838360005b838110156103ec5780820151818401526020810190506103d1565b50505050905090810190601f1680156104195780820380516001836020036101000a031916815260200191505b5094505050505060405180910390a150565b610433610658565b6001600083815260200190815260200160002060405180606001604052908160008201548152602001600182018054600181600116156101000203166002900480601f0160208091040260200160405190810160405280929190818152602001828054600181600116156101000203166002900480156104f45780601f106104c9576101008083540402835291602001916104f4565b820191906000526020600020905b8154815290600101906020018083116104d757829003601f168201915b505050505081526020016002820160009054906101000a900460ff161515151581525050905080604001511581604001901515908115158152505080600160008481526020019081526020016000206000820151816000015560208201518160010190805190602001906105699291906105d8565b5060408201518160020160006101000a81548160ff0219169083151502179055509050507fedb7bbd9ef63a758be56f9219ede132d8621d52c42bf4c934c66ad3bfe0babd482826040015160405180838152602001821515151581526020019250505060405180910390a15050565b828054600181600116156101000203166002900490600052602060002090601f016020900481019282601f1061061957805160ff1916838001178555610647565b82800160010185558215610647579182015b8281111561064657825182559160200191906001019061062b565b5b509050610654919061067b565b5090565b604051806060016040528060008152602001606081526020016000151581525090565b61069d91905b80821115610699576000816000905550600101610681565b5090565b9056fea265627a7a7231582028e9c9126fee0f38014b5cc3dfaf6a35b8d66bafba610dbbb62a054d25c2fabd64736f6c6343000510003253656c616d617420646174616e672064692051756f7472693a20686173696c206b616e20657468657265756d2068616e79612064656e67616e206b75746970616e",
  "source": "// SPDX-License-Identifier: GPL-3.0\n\npragma solidity >=0.4.22 <0.9.0;\n\n/**\n * @title Quotri\n * @dev Quotri: kutipan ethereum\n */\n\ncontract Quotri {\n    uint256 public count = 0;\n\n    struct Quotes {\n        uint256 id;\n        string content;\n        bool published;\n    }\n\n    mapping(uint256 => Quotes) public quotes;\n\n    constructor() public {\n        createQuote(\n            \"Selamat datang di Quotri: hasil kan ethereum hanya dengan kutipan\"\n        );\n    }\n\n    event QuoteCreated(uint256 id, string content, bool published);\n    event QuotePublished(uint256 id, bool published);\n\n    function createQuote(string memory _content) public {\n        count++;\n        quotes[count] = Quotes(count, _content, false);\n        emit QuoteCreated(count, _content, false);\n    }\n\n    function publishQuote(uint256 _id) public {\n        Quotes memory _quotes = quotes[_id];\n        _quotes.published = !_quotes.published;\n        quotes[_id] = _quotes;\n        emit QuotePublished(_id, _quotes.published);\n    }\n}\n",
  "sourcePath": "/home/dea/project/eth-quotes/contracts/Quotri.sol",
  "compiler": {
    "name": "solc",
    "version": "0.5.16+commit.9c3226ce.Emscripten.clang"
  },
  "schemaVersion": "3.4.3",
  "updatedAt": "2021-11-13T14:20:24.589Z",
  "networkType": "ethereum",
  "devdoc": {
    "details": "Quotri: kutipan ethereum",
    "methods": {},
    "title": "Quotri"
  },
  "userdoc": {
    "methods": {}
  }
}