{
  "contractName": "Quotri",
  "abi": [
    {
      "inputs": [],
      "stateMutability": "nonpayable",
      "type": "constructor"
    },
    {
      "anonymous": false,
      "inputs": [
        {
          "indexed": false,
          "internalType": "uint256",
          "name": "id",
          "type": "uint256"
        },
        {
          "indexed": false,
          "internalType": "string",
          "name": "content",
          "type": "string"
        },
        {
          "indexed": false,
          "internalType": "bool",
          "name": "published",
          "type": "bool"
        }
      ],
      "name": "QuoteCreated",
      "type": "event"
    },
    {
      "anonymous": false,
      "inputs": [
        {
          "indexed": false,
          "internalType": "uint256",
          "name": "id",
          "type": "uint256"
        },
        {
          "indexed": false,
          "internalType": "bool",
          "name": "published",
          "type": "bool"
        }
      ],
      "name": "QuotePublished",
      "type": "event"
    },
    {
      "inputs": [],
      "name": "count",
      "outputs": [
        {
          "internalType": "uint256",
          "name": "",
          "type": "uint256"
        }
      ],
      "stateMutability": "view",
      "type": "function",
      "constant": true
    },
    {
      "inputs": [
        {
          "internalType": "uint256",
          "name": "",
          "type": "uint256"
        }
      ],
      "name": "quotes",
      "outputs": [
        {
          "internalType": "uint256",
          "name": "id",
          "type": "uint256"
        },
        {
          "internalType": "string",
          "name": "content",
          "type": "string"
        },
        {
          "internalType": "bool",
          "name": "published",
          "type": "bool"
        }
      ],
      "stateMutability": "view",
      "type": "function",
      "constant": true
    },
    {
      "inputs": [
        {
          "internalType": "string",
          "name": "_content",
          "type": "string"
        }
      ],
      "name": "createQuote",
      "outputs": [],
      "stateMutability": "nonpayable",
      "type": "function"
    },
    {
      "inputs": [
        {
          "internalType": "uint256",
          "name": "_id",
          "type": "uint256"
        }
      ],
      "name": "publishQuote",
      "outputs": [],
      "stateMutability": "nonpayable",
      "type": "function"
    }
  ],
  "bytecode": "0x6080604052600080553480156200001557600080fd5b506200004060405180608001604052806044815260200162000cd1604491396200004660201b60201c565b620003d4565b6000808154809291906200005a906200020b565b919050555060405180606001604052806000548152602001828152602001600015158152506001600080548152602001908152602001600020600082015181600001556020820151816001019080519060200190620000bb92919062000122565b5060408201518160020160006101000a81548160ff0219169083151502179055509050507f0764db6e27484fdb6e638ffaad97f1c9a3dac4ab56e4b8da15687ee17141383460005482600060405162000117939291906200032b565b60405180910390a150565b82805462000130906200039e565b90600052602060002090601f016020900481019282620001545760008555620001a0565b82601f106200016f57805160ff1916838001178555620001a0565b82800160010185558215620001a0579182015b828111156200019f57825182559160200191906001019062000182565b5b509050620001af9190620001b3565b5090565b5b80821115620001ce576000816000905550600101620001b4565b5090565b7f4e487b7100000000000000000000000000000000000000000000000000000000600052601160045260246000fd5b6000819050919050565b6000620002188262000201565b91507fffffffffffffffffffffffffffffffffffffffffffffffffffffffffffffffff8214156200024e576200024d620001d2565b5b600182019050919050565b620002648162000201565b82525050565b600081519050919050565b600082825260208201905092915050565b60005b83811015620002a657808201518184015260208101905062000289565b83811115620002b6576000848401525b50505050565b6000601f19601f8301169050919050565b6000620002da826200026a565b620002e6818562000275565b9350620002f881856020860162000286565b6200030381620002bc565b840191505092915050565b60008115159050919050565b62000325816200030e565b82525050565b600060608201905062000342600083018662000259565b8181036020830152620003568185620002cd565b90506200036760408301846200031a565b949350505050565b7f4e487b7100000000000000000000000000000000000000000000000000000000600052602260045260246000fd5b60006002820490506001821680620003b757607f821691505b60208210811415620003ce57620003cd6200036f565b5b50919050565b6108ed80620003e46000396000f3fe608060405234801561001057600080fd5b506004361061004c5760003560e01c806306661abd14610051578063a61cf0d41461006f578063d72de512146100a1578063db485c1b146100bd575b600080fd5b6100596100d9565b60405161006691906104bd565b60405180910390f35b61008960048036038101906100849190610518565b6100df565b604051610098939291906105f9565b60405180910390f35b6100bb60048036038101906100b6919061076c565b61019e565b005b6100d760048036038101906100d29190610518565b610274565b005b60005481565b6001602052806000526040600020600091509050806000015490806001018054610108906107e4565b80601f0160208091040260200160405190810160405280929190818152602001828054610134906107e4565b80156101815780601f1061015657610100808354040283529160200191610181565b820191906000526020600020905b81548152906001019060200180831161016457829003601f168201915b5050505050908060020160009054906101000a900460ff16905083565b6000808154809291906101b090610845565b91905055506040518060600160405280600054815260200182815260200160001515815250600160008054815260200190815260200160002060008201518160000155602082015181600101908051906020019061020f929190610401565b5060408201518160020160006101000a81548160ff0219169083151502179055509050507f0764db6e27484fdb6e638ffaad97f1c9a3dac4ab56e4b8da15687ee171413834600054826000604051610269939291906105f9565b60405180910390a150565b600060016000838152602001908152602001600020604051806060016040529081600082015481526020016001820180546102ae906107e4565b80601f01602080910402602001604051908101604052809291908181526020018280546102da906107e4565b80156103275780601f106102fc57610100808354040283529160200191610327565b820191906000526020600020905b81548152906001019060200180831161030a57829003601f168201915b505050505081526020016002820160009054906101000a900460ff1615151515815250509050806040015115816040019015159081151581525050806001600084815260200190815260200160002060008201518160000155602082015181600101908051906020019061039c929190610401565b5060408201518160020160006101000a81548160ff0219169083151502179055509050507fedb7bbd9ef63a758be56f9219ede132d8621d52c42bf4c934c66ad3bfe0babd48282604001516040516103f592919061088e565b60405180910390a15050565b82805461040d906107e4565b90600052602060002090601f01602090048101928261042f5760008555610476565b82601f1061044857805160ff1916838001178555610476565b82800160010185558215610476579182015b8281111561047557825182559160200191906001019061045a565b5b5090506104839190610487565b5090565b5b808211156104a0576000816000905550600101610488565b5090565b6000819050919050565b6104b7816104a4565b82525050565b60006020820190506104d260008301846104ae565b92915050565b6000604051905090565b600080fd5b600080fd5b6104f5816104a4565b811461050057600080fd5b50565b600081359050610512816104ec565b92915050565b60006020828403121561052e5761052d6104e2565b5b600061053c84828501610503565b91505092915050565b600081519050919050565b600082825260208201905092915050565b60005b8381101561057f578082015181840152602081019050610564565b8381111561058e576000848401525b50505050565b6000601f19601f8301169050919050565b60006105b082610545565b6105ba8185610550565b93506105ca818560208601610561565b6105d381610594565b840191505092915050565b60008115159050919050565b6105f3816105de565b82525050565b600060608201905061060e60008301866104ae565b818103602083015261062081856105a5565b905061062f60408301846105ea565b949350505050565b600080fd5b600080fd5b7f4e487b7100000000000000000000000000000000000000000000000000000000600052604160045260246000fd5b61067982610594565b810181811067ffffffffffffffff8211171561069857610697610641565b5b80604052505050565b60006106ab6104d8565b90506106b78282610670565b919050565b600067ffffffffffffffff8211156106d7576106d6610641565b5b6106e082610594565b9050602081019050919050565b82818337600083830152505050565b600061070f61070a846106bc565b6106a1565b90508281526020810184848401111561072b5761072a61063c565b5b6107368482856106ed565b509392505050565b600082601f83011261075357610752610637565b5b81356107638482602086016106fc565b91505092915050565b600060208284031215610782576107816104e2565b5b600082013567ffffffffffffffff8111156107a05761079f6104e7565b5b6107ac8482850161073e565b91505092915050565b7f4e487b7100000000000000000000000000000000000000000000000000000000600052602260045260246000fd5b600060028204905060018216806107fc57607f821691505b602082108114156108105761080f6107b5565b5b50919050565b7f4e487b7100000000000000000000000000000000000000000000000000000000600052601160045260246000fd5b6000610850826104a4565b91507fffffffffffffffffffffffffffffffffffffffffffffffffffffffffffffffff82141561088357610882610816565b5b600182019050919050565b60006040820190506108a360008301856104ae565b6108b060208301846105ea565b939250505056fea2646970667358221220adf2244de6ef1eae8d38182d1cfa408eab3312aef639c28c3c427da03870ddc664736f6c6343000809003353656c616d617420646174616e672064692051756f7472693a20686173696c202020206b616e20657468657265756d2068616e79612064656e67616e206b75746970616e",
  "immutableReferences": {},
  "source": "// SPDX-License-Identifier: GPL-3.0\n\npragma solidity ^0.8.9;\n\n/**\n * @title Quotri\n * @dev Quotri: kutipan ethereum\n */\n\ncontract Quotri {\n    uint256 public count = 0;\n\n    struct Quotes {\n        uint256 id;\n        string content;\n        bool published;\n    }\n\n    mapping(uint256 => Quotes) public quotes;\n\n    constructor() {\n        createQuote(\n            \"Selamat datang di Quotri: hasil    kan ethereum hanya dengan kutipan\"\n        );\n    }\n\n    event QuoteCreated(uint256 id, string content, bool published);\n    event QuotePublished(uint256 id, bool published);\n\n    function createQuote(string memory _content) public {\n        count++;\n        quotes[count] = Quotes(count, _content, false);\n        emit QuoteCreated(count, _content, false);\n    }\n\n    function publishQuote(uint256 _id) public {\n        Quotes memory _quotes = quotes[_id];\n        _quotes.published = !_quotes.published;\n        quotes[_id] = _quotes;\n        emit QuotePublished(_id, _quotes.published);\n    }\n}\n",
  "sourcePath": "/home/dea/project/eth-quotes/contracts/Quotri.sol",
  "compiler": {
    "name": "solc",
    "version": "0.8.9+commit.e5eed63a.Emscripten.clang"
  },
  "schemaVersion": "3.4.3",
  "updatedAt": "2021-11-12T02:19:00.333Z",
  "networkType": "ethereum",
  "devdoc": {
    "details": "Quotri: kutipan ethereum",
    "kind": "dev",
    "methods": {},
    "title": "Quotri",
    "version": 1
  },
  "userdoc": {
    "kind": "user",
    "methods": {},
    "version": 1
  }
}